{
  "contractName": "AchievementNFT",
  "abi": [
    {
      "inputs": [
        {
          "internalType": "string",
          "name": "_name",
          "type": "string"
        },
        {
          "internalType": "string",
          "name": "_symbol",
          "type": "string"
        },
        {
          "internalType": "string",
          "name": "_baseURL",
          "type": "string"
        }
      ],
      "stateMutability": "nonpayable",
      "type": "constructor"
    },
    {
      "inputs": [
        {
          "internalType": "address",
          "name": "sender",
          "type": "address"
        },
        {
          "internalType": "uint256",
          "name": "tokenId",
          "type": "uint256"
        },
        {
          "internalType": "address",
          "name": "owner",
          "type": "address"
        }
      ],
      "name": "ERC721IncorrectOwner",
      "type": "error"
    },
    {
      "inputs": [
        {
          "internalType": "address",
          "name": "operator",
          "type": "address"
        },
        {
          "internalType": "uint256",
          "name": "tokenId",
          "type": "uint256"
        }
      ],
      "name": "ERC721InsufficientApproval",
      "type": "error"
    },
    {
      "inputs": [
        {
          "internalType": "address",
          "name": "approver",
          "type": "address"
        }
      ],
      "name": "ERC721InvalidApprover",
      "type": "error"
    },
    {
      "inputs": [
        {
          "internalType": "address",
          "name": "operator",
          "type": "address"
        }
      ],
      "name": "ERC721InvalidOperator",
      "type": "error"
    },
    {
      "inputs": [
        {
          "internalType": "address",
          "name": "owner",
          "type": "address"
        }
      ],
      "name": "ERC721InvalidOwner",
      "type": "error"
    },
    {
      "inputs": [
        {
          "internalType": "address",
          "name": "receiver",
          "type": "address"
        }
      ],
      "name": "ERC721InvalidReceiver",
      "type": "error"
    },
    {
      "inputs": [
        {
          "internalType": "address",
          "name": "sender",
          "type": "address"
        }
      ],
      "name": "ERC721InvalidSender",
      "type": "error"
    },
    {
      "inputs": [
        {
          "internalType": "uint256",
          "name": "tokenId",
          "type": "uint256"
        }
      ],
      "name": "ERC721NonexistentToken",
      "type": "error"
    },
    {
      "anonymous": false,
      "inputs": [
        {
          "indexed": true,
          "internalType": "uint256",
          "name": "achievementId",
          "type": "uint256"
        },
        {
          "indexed": true,
          "internalType": "address",
          "name": "player",
          "type": "address"
        }
      ],
      "name": "AchievementMinted",
      "type": "event"
    },
    {
      "anonymous": false,
      "inputs": [
        {
          "indexed": true,
          "internalType": "uint256",
          "name": "achievementId",
          "type": "uint256"
        },
        {
          "indexed": true,
          "internalType": "address",
          "name": "from",
          "type": "address"
        },
        {
          "indexed": true,
          "internalType": "address",
          "name": "to",
          "type": "address"
        }
      ],
      "name": "AchievementTraded",
      "type": "event"
    },
    {
      "anonymous": false,
      "inputs": [
        {
          "indexed": true,
          "internalType": "address",
          "name": "owner",
          "type": "address"
        },
        {
          "indexed": true,
          "internalType": "address",
          "name": "approved",
          "type": "address"
        },
        {
          "indexed": true,
          "internalType": "uint256",
          "name": "tokenId",
          "type": "uint256"
        }
      ],
      "name": "Approval",
      "type": "event"
    },
    {
      "anonymous": false,
      "inputs": [
        {
          "indexed": true,
          "internalType": "address",
          "name": "owner",
          "type": "address"
        },
        {
          "indexed": true,
          "internalType": "address",
          "name": "operator",
          "type": "address"
        },
        {
          "indexed": false,
          "internalType": "bool",
          "name": "approved",
          "type": "bool"
        }
      ],
      "name": "ApprovalForAll",
      "type": "event"
    },
    {
      "anonymous": false,
      "inputs": [
        {
          "indexed": true,
          "internalType": "address",
          "name": "from",
          "type": "address"
        },
        {
          "indexed": true,
          "internalType": "address",
          "name": "to",
          "type": "address"
        },
        {
          "indexed": true,
          "internalType": "uint256",
          "name": "tokenId",
          "type": "uint256"
        }
      ],
      "name": "Transfer",
      "type": "event"
    },
    {
      "inputs": [],
      "name": "achievementIdCounter",
      "outputs": [
        {
          "internalType": "uint256",
          "name": "",
          "type": "uint256"
        }
      ],
      "stateMutability": "view",
      "type": "function"
    },
    {
      "inputs": [
        {
          "internalType": "uint256",
          "name": "",
          "type": "uint256"
        }
      ],
      "name": "achievements",
      "outputs": [
        {
          "internalType": "uint256",
          "name": "id",
          "type": "uint256"
        },
        {
          "internalType": "address",
          "name": "owner",
          "type": "address"
        },
        {
          "internalType": "string",
          "name": "name",
          "type": "string"
        },
        {
          "internalType": "uint256",
          "name": "rarity",
          "type": "uint256"
        },
        {
          "internalType": "bool",
          "name": "isTransferable",
          "type": "bool"
        }
      ],
      "stateMutability": "view",
      "type": "function"
    },
    {
      "inputs": [
        {
          "internalType": "address",
          "name": "to",
          "type": "address"
        },
        {
          "internalType": "uint256",
          "name": "tokenId",
          "type": "uint256"
        }
      ],
      "name": "approve",
      "outputs": [],
      "stateMutability": "nonpayable",
      "type": "function"
    },
    {
      "inputs": [
        {
          "internalType": "address",
          "name": "owner",
          "type": "address"
        }
      ],
      "name": "balanceOf",
      "outputs": [
        {
          "internalType": "uint256",
          "name": "",
          "type": "uint256"
        }
      ],
      "stateMutability": "view",
      "type": "function"
    },
    {
      "inputs": [
        {
          "internalType": "uint256",
          "name": "tokenId",
          "type": "uint256"
        }
      ],
      "name": "getApproved",
      "outputs": [
        {
          "internalType": "address",
          "name": "",
          "type": "address"
        }
      ],
      "stateMutability": "view",
      "type": "function"
    },
    {
      "inputs": [
        {
          "internalType": "address",
          "name": "owner",
          "type": "address"
        },
        {
          "internalType": "address",
          "name": "operator",
          "type": "address"
        }
      ],
      "name": "isApprovedForAll",
      "outputs": [
        {
          "internalType": "bool",
          "name": "",
          "type": "bool"
        }
      ],
      "stateMutability": "view",
      "type": "function"
    },
    {
      "inputs": [],
      "name": "name",
      "outputs": [
        {
          "internalType": "string",
          "name": "",
          "type": "string"
        }
      ],
      "stateMutability": "view",
      "type": "function"
    },
    {
      "inputs": [
        {
          "internalType": "uint256",
          "name": "tokenId",
          "type": "uint256"
        }
      ],
      "name": "ownerOf",
      "outputs": [
        {
          "internalType": "address",
          "name": "",
          "type": "address"
        }
      ],
      "stateMutability": "view",
      "type": "function"
    },
    {
      "inputs": [
        {
          "internalType": "address",
          "name": "",
          "type": "address"
        },
        {
          "internalType": "uint256",
          "name": "",
          "type": "uint256"
        }
      ],
      "name": "playerAchievements",
      "outputs": [
        {
          "internalType": "uint256",
          "name": "",
          "type": "uint256"
        }
      ],
      "stateMutability": "view",
      "type": "function"
    },
    {
      "inputs": [
        {
          "internalType": "address",
          "name": "from",
          "type": "address"
        },
        {
          "internalType": "address",
          "name": "to",
          "type": "address"
        },
        {
          "internalType": "uint256",
          "name": "tokenId",
          "type": "uint256"
        }
      ],
      "name": "safeTransferFrom",
      "outputs": [],
      "stateMutability": "nonpayable",
      "type": "function"
    },
    {
      "inputs": [
        {
          "internalType": "address",
          "name": "from",
          "type": "address"
        },
        {
          "internalType": "address",
          "name": "to",
          "type": "address"
        },
        {
          "internalType": "uint256",
          "name": "tokenId",
          "type": "uint256"
        },
        {
          "internalType": "bytes",
          "name": "data",
          "type": "bytes"
        }
      ],
      "name": "safeTransferFrom",
      "outputs": [],
      "stateMutability": "nonpayable",
      "type": "function"
    },
    {
      "inputs": [
        {
          "internalType": "address",
          "name": "operator",
          "type": "address"
        },
        {
          "internalType": "bool",
          "name": "approved",
          "type": "bool"
        }
      ],
      "name": "setApprovalForAll",
      "outputs": [],
      "stateMutability": "nonpayable",
      "type": "function"
    },
    {
      "inputs": [
        {
          "internalType": "bytes4",
          "name": "interfaceId",
          "type": "bytes4"
        }
      ],
      "name": "supportsInterface",
      "outputs": [
        {
          "internalType": "bool",
          "name": "",
          "type": "bool"
        }
      ],
      "stateMutability": "view",
      "type": "function"
    },
    {
      "inputs": [],
      "name": "symbol",
      "outputs": [
        {
          "internalType": "string",
          "name": "",
          "type": "string"
        }
      ],
      "stateMutability": "view",
      "type": "function"
    },
    {
      "inputs": [
        {
          "internalType": "uint256",
          "name": "tokenId",
          "type": "uint256"
        }
      ],
      "name": "tokenURI",
      "outputs": [
        {
          "internalType": "string",
          "name": "",
          "type": "string"
        }
      ],
      "stateMutability": "view",
      "type": "function"
    },
    {
      "inputs": [
        {
          "internalType": "address",
          "name": "from",
          "type": "address"
        },
        {
          "internalType": "address",
          "name": "to",
          "type": "address"
        },
        {
          "internalType": "uint256",
          "name": "tokenId",
          "type": "uint256"
        }
      ],
      "name": "transferFrom",
      "outputs": [],
      "stateMutability": "nonpayable",
      "type": "function"
    },
    {
      "inputs": [
        {
          "internalType": "string",
          "name": "_baseURL",
          "type": "string"
        }
      ],
      "name": "updateBaseURL",
      "outputs": [],
      "stateMutability": "nonpayable",
      "type": "function"
    },
    {
      "inputs": [
        {
          "internalType": "address",
          "name": "_player",
          "type": "address"
        },
        {
          "internalType": "string",
          "name": "_name",
          "type": "string"
        },
        {
          "internalType": "uint256",
          "name": "_rarity",
          "type": "uint256"
        },
        {
          "internalType": "bool",
          "name": "_transferable",
          "type": "bool"
        }
      ],
      "name": "mintAchievement",
      "outputs": [],
      "stateMutability": "nonpayable",
      "type": "function"
    },
    {
      "inputs": [
        {
          "internalType": "uint256",
          "name": "_achievementId",
          "type": "uint256"
        }
      ],
      "name": "getAchievementMetadata",
      "outputs": [
        {
          "components": [
            {
              "internalType": "uint256",
              "name": "id",
              "type": "uint256"
            },
            {
              "internalType": "address",
              "name": "owner",
              "type": "address"
            },
            {
              "internalType": "string",
              "name": "name",
              "type": "string"
            },
            {
              "internalType": "uint256",
              "name": "rarity",
              "type": "uint256"
            },
            {
              "internalType": "bool",
              "name": "isTransferable",
              "type": "bool"
            }
          ],
          "internalType": "struct AchievementNFT.Achievement",
          "name": "",
          "type": "tuple"
        }
      ],
      "stateMutability": "view",
      "type": "function"
    },
    {
      "inputs": [
        {
          "internalType": "address",
          "name": "_player",
          "type": "address"
        }
      ],
      "name": "getPlayerAchievements",
      "outputs": [
        {
          "internalType": "uint256[]",
          "name": "",
          "type": "uint256[]"
        }
      ],
      "stateMutability": "view",
      "type": "function"
    }
  ],
  "bytecode": "0x608060405234801562000010575f80fd5b506040516200318238038062003182833981810160405281019062000036919062000244565b8282815f908162000048919062000531565b5080600190816200005a919062000531565b50505080600790816200006e919062000531565b503360065f6101000a81548173ffffffffffffffffffffffffffffffffffffffff021916908373ffffffffffffffffffffffffffffffffffffffff1602179055505f600a8190555050505062000615565b5f604051905090565b5f80fd5b5f80fd5b5f80fd5b5f80fd5b5f601f19601f8301169050919050565b7f4e487b71000000000000000000000000000000000000000000000000000000005f52604160045260245ffd5b6200012082620000d8565b810181811067ffffffffffffffff82111715620001425762000141620000e8565b5b80604052505050565b5f62000156620000bf565b905062000164828262000115565b919050565b5f67ffffffffffffffff821115620001865762000185620000e8565b5b6200019182620000d8565b9050602081019050919050565b5f5b83811015620001bd578082015181840152602081019050620001a0565b5f8484015250505050565b5f620001de620001d88462000169565b6200014b565b905082815260208101848484011115620001fd57620001fc620000d4565b5b6200020a8482856200019e565b509392505050565b5f82601f830112620002295762000228620000d0565b5b81516200023b848260208601620001c8565b91505092915050565b5f805f606084860312156200025e576200025d620000c8565b5b5f84015167ffffffffffffffff8111156200027e576200027d620000cc565b5b6200028c8682870162000212565b935050602084015167ffffffffffffffff811115620002b057620002af620000cc565b5b620002be8682870162000212565b925050604084015167ffffffffffffffff811115620002e257620002e1620000cc565b5b620002f08682870162000212565b9150509250925092565b5f81519050919050565b7f4e487b71000000000000000000000000000000000000000000000000000000005f52602260045260245ffd5b5f60028204905060018216806200034957607f821691505b6020821081036200035f576200035e62000304565b5b50919050565b5f819050815f5260205f209050919050565b5f6020601f8301049050919050565b5f82821b905092915050565b5f60088302620003c37fffffffffffffffffffffffffffffffffffffffffffffffffffffffffffffffff8262000386565b620003cf868362000386565b95508019841693508086168417925050509392505050565b5f819050919050565b5f819050919050565b5f62000419620004136200040d84620003e7565b620003f0565b620003e7565b9050919050565b5f819050919050565b6200043483620003f9565b6200044c620004438262000420565b84845462000392565b825550505050565b5f90565b6200046262000454565b6200046f81848462000429565b505050565b5b8181101562000496576200048a5f8262000458565b60018101905062000475565b5050565b601f821115620004e557620004af8162000365565b620004ba8462000377565b81016020851015620004ca578190505b620004e2620004d98562000377565b83018262000474565b50505b505050565b5f82821c905092915050565b5f620005075f1984600802620004ea565b1980831691505092915050565b5f620005218383620004f6565b9150826002028217905092915050565b6200053c82620002fa565b67ffffffffffffffff811115620005585762000557620000e8565b5b62000564825462000331565b620005718282856200049a565b5f60209050601f831160018114620005a7575f841562000592578287015190505b6200059e858262000514565b8655506200060d565b601f198416620005b78662000365565b5f5b82811015620005e057848901518255600182019150602085019450602081019050620005b9565b86831015620006005784890151620005fc601f891682620004f6565b8355505b6001600288020188555050505b505050505050565b612b5f80620006235f395ff3fe608060405234801561000f575f80fd5b506004361061012a575f3560e01c806370a08231116100ab578063b88d4fde1161006f578063b88d4fde14610354578063c87b56dd14610370578063dac57a67146103a0578063df999dfd146103d0578063e985e9c5146104005761012a565b806370a082311461029e578063870d6f9d146102ce57806395d89b41146102ea5780639ce67bdd14610308578063a22cb465146103385761012a565b806327aed72e116100f257806327aed72e146101e457806342842e0e14610218578063480ae54d146102345780636352211e1461025257806369e11d0c146102825761012a565b806301ffc9a71461012e57806306fdde031461015e578063081812fc1461017c578063095ea7b3146101ac57806323b872dd146101c8575b5f80fd5b61014860048036038101906101439190611d09565b610430565b6040516101559190611d4e565b60405180910390f35b610166610511565b6040516101739190611df1565b60405180910390f35b61019660048036038101906101919190611e44565b6105a0565b6040516101a39190611eae565b60405180910390f35b6101c660048036038101906101c19190611ef1565b6105bb565b005b6101e260048036038101906101dd9190611f2f565b6105d1565b005b6101fe60048036038101906101f99190611e44565b6106d0565b60405161020f959493929190611f8e565b60405180910390f35b610232600480360381019061022d9190611f2f565b6107b3565b005b61023c6107d2565b6040516102499190611fe6565b60405180910390f35b61026c60048036038101906102679190611e44565b6107d8565b6040516102799190611eae565b60405180910390f35b61029c60048036038101906102979190612155565b6107e9565b005b6102b860048036038101906102b391906121d5565b61099e565b6040516102c59190611fe6565b60405180910390f35b6102e860048036038101906102e39190612200565b610a54565b005b6102f2610af6565b6040516102ff9190611df1565b60405180910390f35b610322600480360381019061031d91906121d5565b610b86565b60405161032f91906122fe565b60405180910390f35b610352600480360381019061034d919061231e565b610c19565b005b61036e600480360381019061036991906123fa565b610c2f565b005b61038a60048036038101906103859190611e44565b610c4c565b6040516103979190611df1565b60405180910390f35b6103ba60048036038101906103b59190611e44565b610cb2565b6040516103c79190612553565b60405180910390f35b6103ea60048036038101906103e59190611ef1565b610def565b6040516103f79190611fe6565b60405180910390f35b61041a60048036038101906104159190612573565b610e1a565b6040516104279190611d4e565b60405180910390f35b5f7f80ac58cd000000000000000000000000000000000000000000000000000000007bffffffffffffffffffffffffffffffffffffffffffffffffffffffff1916827bffffffffffffffffffffffffffffffffffffffffffffffffffffffff191614806104fa57507f5b5e139f000000000000000000000000000000000000000000000000000000007bffffffffffffffffffffffffffffffffffffffffffffffffffffffff1916827bffffffffffffffffffffffffffffffffffffffffffffffffffffffff1916145b8061050a575061050982610ea8565b5b9050919050565b60605f805461051f906125de565b80601f016020809104026020016040519081016040528092919081815260200182805461054b906125de565b80156105965780601f1061056d57610100808354040283529160200191610596565b820191905f5260205f20905b81548152906001019060200180831161057957829003601f168201915b5050505050905090565b5f6105aa82610f11565b506105b482610f97565b9050919050565b6105cd82826105c8610fd0565b610fd7565b5050565b5f73ffffffffffffffffffffffffffffffffffffffff168273ffffffffffffffffffffffffffffffffffffffff1603610641575f6040517f64a0ae920000000000000000000000000000000000000000000000000000000081526004016106389190611eae565b60405180910390fd5b5f610654838361064f610fd0565b610fe9565b90508373ffffffffffffffffffffffffffffffffffffffff168173ffffffffffffffffffffffffffffffffffffffff16146106ca578382826040517f64283d7b0000000000000000000000000000000000000000000000000000000081526004016106c19392919061260e565b60405180910390fd5b50505050565b6008602052805f5260405f205f91509050805f015490806001015f9054906101000a900473ffffffffffffffffffffffffffffffffffffffff169080600201805461071a906125de565b80601f0160208091040260200160405190810160405280929190818152602001828054610746906125de565b80156107915780601f1061076857610100808354040283529160200191610791565b820191905f5260205f20905b81548152906001019060200180831161077457829003601f168201915b505050505090806003015490806004015f9054906101000a900460ff16905085565b6107cd83838360405180602001604052805f815250610c2f565b505050565b600a5481565b5f6107e282610f11565b9050919050565b5f600a5490506040518060a001604052808281526020013373ffffffffffffffffffffffffffffffffffffffff16815260200185815260200184815260200183151581525060085f8381526020019081526020015f205f820151815f01556020820151816001015f6101000a81548173ffffffffffffffffffffffffffffffffffffffff021916908373ffffffffffffffffffffffffffffffffffffffff16021790555060408201518160020190816108a291906127e0565b50606082015181600301556080820151816004015f6101000a81548160ff02191690831515021790555090505060095f8673ffffffffffffffffffffffffffffffffffffffff1673ffffffffffffffffffffffffffffffffffffffff1681526020019081526020015f2081908060018154018082558091505060019003905f5260205f20015f909190919091505561093a33826111f4565b8473ffffffffffffffffffffffffffffffffffffffff16817f8bfa160d9294fb67a8974a962ad20c50430506424d2d68155f40f96c848ab9c560405160405180910390a36001600a5f82825461099091906128dc565b925050819055505050505050565b5f8073ffffffffffffffffffffffffffffffffffffffff168273ffffffffffffffffffffffffffffffffffffffff1603610a0f575f6040517f89c62b64000000000000000000000000000000000000000000000000000000008152600401610a069190611eae565b60405180910390fd5b60035f8373ffffffffffffffffffffffffffffffffffffffff1673ffffffffffffffffffffffffffffffffffffffff1681526020019081526020015f20549050919050565b60065f9054906101000a900473ffffffffffffffffffffffffffffffffffffffff1673ffffffffffffffffffffffffffffffffffffffff163373ffffffffffffffffffffffffffffffffffffffff1614610ae3576040517f08c379a0000000000000000000000000000000000000000000000000000000008152600401610ada9061297f565b60405180910390fd5b8060079081610af291906127e0565b5050565b606060018054610b05906125de565b80601f0160208091040260200160405190810160405280929190818152602001828054610b31906125de565b8015610b7c5780601f10610b5357610100808354040283529160200191610b7c565b820191905f5260205f20905b815481529060010190602001808311610b5f57829003601f168201915b5050505050905090565b606060095f8373ffffffffffffffffffffffffffffffffffffffff1673ffffffffffffffffffffffffffffffffffffffff1681526020019081526020015f20805480602002602001604051908101604052809291908181526020018280548015610c0d57602002820191905f5260205f20905b815481526020019060010190808311610bf9575b50505050509050919050565b610c2b610c24610fd0565b8383611211565b5050565b610c3a8484846105d1565b610c468484848461137a565b50505050565b6060610c5782610f11565b505f610c6161152c565b90505f815111610c7f5760405180602001604052805f815250610caa565b80610c89846115bc565b604051602001610c9a9291906129d7565b6040516020818303038152906040525b915050919050565b610cba611c60565b60085f8381526020019081526020015f206040518060a00160405290815f8201548152602001600182015f9054906101000a900473ffffffffffffffffffffffffffffffffffffffff1673ffffffffffffffffffffffffffffffffffffffff1673ffffffffffffffffffffffffffffffffffffffff168152602001600282018054610d44906125de565b80601f0160208091040260200160405190810160405280929190818152602001828054610d70906125de565b8015610dbb5780601f10610d9257610100808354040283529160200191610dbb565b820191905f5260205f20905b815481529060010190602001808311610d9e57829003601f168201915b5050505050815260200160038201548152602001600482015f9054906101000a900460ff1615151515815250509050919050565b6009602052815f5260405f208181548110610e08575f80fd5b905f5260205f20015f91509150505481565b5f60055f8473ffffffffffffffffffffffffffffffffffffffff1673ffffffffffffffffffffffffffffffffffffffff1681526020019081526020015f205f8373ffffffffffffffffffffffffffffffffffffffff1673ffffffffffffffffffffffffffffffffffffffff1681526020019081526020015f205f9054906101000a900460ff16905092915050565b5f7f01ffc9a7000000000000000000000000000000000000000000000000000000007bffffffffffffffffffffffffffffffffffffffffffffffffffffffff1916827bffffffffffffffffffffffffffffffffffffffffffffffffffffffff1916149050919050565b5f80610f1c83611686565b90505f73ffffffffffffffffffffffffffffffffffffffff168173ffffffffffffffffffffffffffffffffffffffff1603610f8e57826040517f7e273289000000000000000000000000000000000000000000000000000000008152600401610f859190611fe6565b60405180910390fd5b80915050919050565b5f60045f8381526020019081526020015f205f9054906101000a900473ffffffffffffffffffffffffffffffffffffffff169050919050565b5f33905090565b610fe483838360016116bf565b505050565b5f80610ff484611686565b90505f73ffffffffffffffffffffffffffffffffffffffff168373ffffffffffffffffffffffffffffffffffffffff16146110355761103481848661187e565b5b5f73ffffffffffffffffffffffffffffffffffffffff168173ffffffffffffffffffffffffffffffffffffffff16146110c0576110745f855f806116bf565b600160035f8373ffffffffffffffffffffffffffffffffffffffff1673ffffffffffffffffffffffffffffffffffffffff1681526020019081526020015f205f82825403925050819055505b5f73ffffffffffffffffffffffffffffffffffffffff168573ffffffffffffffffffffffffffffffffffffffff161461113f57600160035f8773ffffffffffffffffffffffffffffffffffffffff1673ffffffffffffffffffffffffffffffffffffffff1681526020019081526020015f205f82825401925050819055505b8460025f8681526020019081526020015f205f6101000a81548173ffffffffffffffffffffffffffffffffffffffff021916908373ffffffffffffffffffffffffffffffffffffffff160217905550838573ffffffffffffffffffffffffffffffffffffffff168273ffffffffffffffffffffffffffffffffffffffff167fddf252ad1be2c89b69c2b068fc378daa952ba7f163c4a11628f55a4df523b3ef60405160405180910390a4809150509392505050565b61120d828260405180602001604052805f815250611941565b5050565b5f73ffffffffffffffffffffffffffffffffffffffff168273ffffffffffffffffffffffffffffffffffffffff160361128157816040517f5b08ba180000000000000000000000000000000000000000000000000000000081526004016112789190611eae565b60405180910390fd5b8060055f8573ffffffffffffffffffffffffffffffffffffffff1673ffffffffffffffffffffffffffffffffffffffff1681526020019081526020015f205f8473ffffffffffffffffffffffffffffffffffffffff1673ffffffffffffffffffffffffffffffffffffffff1681526020019081526020015f205f6101000a81548160ff0219169083151502179055508173ffffffffffffffffffffffffffffffffffffffff168373ffffffffffffffffffffffffffffffffffffffff167f17307eab39ab6107e8899845ad3d59bd9653f200f220920489ca2b5937696c318360405161136d9190611d4e565b60405180910390a3505050565b5f8373ffffffffffffffffffffffffffffffffffffffff163b1115611526578273ffffffffffffffffffffffffffffffffffffffff1663150b7a026113bd610fd0565b8685856040518563ffffffff1660e01b81526004016113df9493929190612a4c565b6020604051808303815f875af192505050801561141a57506040513d601f19601f820116820180604052508101906114179190612aaa565b60015b61149b573d805f8114611448576040519150601f19603f3d011682016040523d82523d5f602084013e61144d565b606091505b505f81510361149357836040517f64a0ae9200000000000000000000000000000000000000000000000000000000815260040161148a9190611eae565b60405180910390fd5b805181602001fd5b63150b7a0260e01b7bffffffffffffffffffffffffffffffffffffffffffffffffffffffff1916817bffffffffffffffffffffffffffffffffffffffffffffffffffffffff19161461152457836040517f64a0ae9200000000000000000000000000000000000000000000000000000000815260040161151b9190611eae565b60405180910390fd5b505b50505050565b60606007805461153b906125de565b80601f0160208091040260200160405190810160405280929190818152602001828054611567906125de565b80156115b25780601f10611589576101008083540402835291602001916115b2565b820191905f5260205f20905b81548152906001019060200180831161159557829003601f168201915b5050505050905090565b60605f60016115ca8461195c565b0190505f8167ffffffffffffffff8111156115e8576115e7612007565b5b6040519080825280601f01601f19166020018201604052801561161a5781602001600182028036833780820191505090505b5090505f82602001820190505b60011561167b578080600190039150507f3031323334353637383961626364656600000000000000000000000000000000600a86061a8153600a85816116705761166f612ad5565b5b0494505f8503611627575b819350505050919050565b5f60025f8381526020019081526020015f205f9054906101000a900473ffffffffffffffffffffffffffffffffffffffff169050919050565b80806116f757505f73ffffffffffffffffffffffffffffffffffffffff168273ffffffffffffffffffffffffffffffffffffffff1614155b15611829575f61170684610f11565b90505f73ffffffffffffffffffffffffffffffffffffffff168373ffffffffffffffffffffffffffffffffffffffff161415801561177057508273ffffffffffffffffffffffffffffffffffffffff168173ffffffffffffffffffffffffffffffffffffffff1614155b801561178357506117818184610e1a565b155b156117c557826040517fa9fbf51f0000000000000000000000000000000000000000000000000000000081526004016117bc9190611eae565b60405180910390fd5b811561182757838573ffffffffffffffffffffffffffffffffffffffff168273ffffffffffffffffffffffffffffffffffffffff167f8c5be1e5ebec7d5bd14f71427d1e84f3dd0314c0f7b2291e5b200ac8c7c3b92560405160405180910390a45b505b8360045f8581526020019081526020015f205f6101000a81548173ffffffffffffffffffffffffffffffffffffffff021916908373ffffffffffffffffffffffffffffffffffffffff16021790555050505050565b611889838383611aad565b61193c575f73ffffffffffffffffffffffffffffffffffffffff168373ffffffffffffffffffffffffffffffffffffffff16036118fd57806040517f7e2732890000000000000000000000000000000000000000000000000000000081526004016118f49190611fe6565b60405180910390fd5b81816040517f177e802f000000000000000000000000000000000000000000000000000000008152600401611933929190612b02565b60405180910390fd5b505050565b61194b8383611b6d565b6119575f84848461137a565b505050565b5f805f90507a184f03e93ff9f4daa797ed6e38ed64bf6a1f01000000000000000083106119b8577a184f03e93ff9f4daa797ed6e38ed64bf6a1f01000000000000000083816119ae576119ad612ad5565b5b0492506040810190505b6d04ee2d6d415b85acef810000000083106119f5576d04ee2d6d415b85acef810000000083816119eb576119ea612ad5565b5b0492506020810190505b662386f26fc100008310611a2457662386f26fc100008381611a1a57611a19612ad5565b5b0492506010810190505b6305f5e1008310611a4d576305f5e1008381611a4357611a42612ad5565b5b0492506008810190505b6127108310611a72576127108381611a6857611a67612ad5565b5b0492506004810190505b60648310611a955760648381611a8b57611a8a612ad5565b5b0492506002810190505b600a8310611aa4576001810190505b80915050919050565b5f8073ffffffffffffffffffffffffffffffffffffffff168373ffffffffffffffffffffffffffffffffffffffff1614158015611b6457508273ffffffffffffffffffffffffffffffffffffffff168473ffffffffffffffffffffffffffffffffffffffff161480611b255750611b248484610e1a565b5b80611b6357508273ffffffffffffffffffffffffffffffffffffffff16611b4b83610f97565b73ffffffffffffffffffffffffffffffffffffffff16145b5b90509392505050565b5f73ffffffffffffffffffffffffffffffffffffffff168273ffffffffffffffffffffffffffffffffffffffff1603611bdd575f6040517f64a0ae92000000000000000000000000000000000000000000000000000000008152600401611bd49190611eae565b60405180910390fd5b5f611be983835f610fe9565b90505f73ffffffffffffffffffffffffffffffffffffffff168173ffffffffffffffffffffffffffffffffffffffff1614611c5b575f6040517f73c6ac6e000000000000000000000000000000000000000000000000000000008152600401611c529190611eae565b60405180910390fd5b505050565b6040518060a001604052805f81526020015f73ffffffffffffffffffffffffffffffffffffffff168152602001606081526020015f81526020015f151581525090565b5f604051905090565b5f80fd5b5f80fd5b5f7fffffffff0000000000000000000000000000000000000000000000000000000082169050919050565b611ce881611cb4565b8114611cf2575f80fd5b50565b5f81359050611d0381611cdf565b92915050565b5f60208284031215611d1e57611d1d611cac565b5b5f611d2b84828501611cf5565b91505092915050565b5f8115159050919050565b611d4881611d34565b82525050565b5f602082019050611d615f830184611d3f565b92915050565b5f81519050919050565b5f82825260208201905092915050565b5f5b83811015611d9e578082015181840152602081019050611d83565b5f8484015250505050565b5f601f19601f8301169050919050565b5f611dc382611d67565b611dcd8185611d71565b9350611ddd818560208601611d81565b611de681611da9565b840191505092915050565b5f6020820190508181035f830152611e098184611db9565b905092915050565b5f819050919050565b611e2381611e11565b8114611e2d575f80fd5b50565b5f81359050611e3e81611e1a565b92915050565b5f60208284031215611e5957611e58611cac565b5b5f611e6684828501611e30565b91505092915050565b5f73ffffffffffffffffffffffffffffffffffffffff82169050919050565b5f611e9882611e6f565b9050919050565b611ea881611e8e565b82525050565b5f602082019050611ec15f830184611e9f565b92915050565b611ed081611e8e565b8114611eda575f80fd5b50565b5f81359050611eeb81611ec7565b92915050565b5f8060408385031215611f0757611f06611cac565b5b5f611f1485828601611edd565b9250506020611f2585828601611e30565b9150509250929050565b5f805f60608486031215611f4657611f45611cac565b5b5f611f5386828701611edd565b9350506020611f6486828701611edd565b9250506040611f7586828701611e30565b9150509250925092565b611f8881611e11565b82525050565b5f60a082019050611fa15f830188611f7f565b611fae6020830187611e9f565b8181036040830152611fc08186611db9565b9050611fcf6060830185611f7f565b611fdc6080830184611d3f565b9695505050505050565b5f602082019050611ff95f830184611f7f565b92915050565b5f80fd5b5f80fd5b7f4e487b71000000000000000000000000000000000000000000000000000000005f52604160045260245ffd5b61203d82611da9565b810181811067ffffffffffffffff8211171561205c5761205b612007565b5b80604052505050565b5f61206e611ca3565b905061207a8282612034565b919050565b5f67ffffffffffffffff82111561209957612098612007565b5b6120a282611da9565b9050602081019050919050565b828183375f83830152505050565b5f6120cf6120ca8461207f565b612065565b9050828152602081018484840111156120eb576120ea612003565b5b6120f68482856120af565b509392505050565b5f82601f83011261211257612111611fff565b5b81356121228482602086016120bd565b91505092915050565b61213481611d34565b811461213e575f80fd5b50565b5f8135905061214f8161212b565b92915050565b5f805f806080858703121561216d5761216c611cac565b5b5f61217a87828801611edd565b945050602085013567ffffffffffffffff81111561219b5761219a611cb0565b5b6121a7878288016120fe565b93505060406121b887828801611e30565b92505060606121c987828801612141565b91505092959194509250565b5f602082840312156121ea576121e9611cac565b5b5f6121f784828501611edd565b91505092915050565b5f6020828403121561221557612214611cac565b5b5f82013567ffffffffffffffff81111561223257612231611cb0565b5b61223e848285016120fe565b91505092915050565b5f81519050919050565b5f82825260208201905092915050565b5f819050602082019050919050565b61227981611e11565b82525050565b5f61228a8383612270565b60208301905092915050565b5f602082019050919050565b5f6122ac82612247565b6122b68185612251565b93506122c183612261565b805f5b838110156122f15781516122d8888261227f565b97506122e383612296565b9250506001810190506122c4565b5085935050505092915050565b5f6020820190508181035f83015261231681846122a2565b905092915050565b5f806040838503121561233457612333611cac565b5b5f61234185828601611edd565b925050602061235285828601612141565b9150509250929050565b5f67ffffffffffffffff82111561237657612375612007565b5b61237f82611da9565b9050602081019050919050565b5f61239e6123998461235c565b612065565b9050828152602081018484840111156123ba576123b9612003565b5b6123c58482856120af565b509392505050565b5f82601f8301126123e1576123e0611fff565b5b81356123f184826020860161238c565b91505092915050565b5f805f806080858703121561241257612411611cac565b5b5f61241f87828801611edd565b945050602061243087828801611edd565b935050604061244187828801611e30565b925050606085013567ffffffffffffffff81111561246257612461611cb0565b5b61246e878288016123cd565b91505092959194509250565b61248381611e8e565b82525050565b5f82825260208201905092915050565b5f6124a382611d67565b6124ad8185612489565b93506124bd818560208601611d81565b6124c681611da9565b840191505092915050565b6124da81611d34565b82525050565b5f60a083015f8301516124f55f860182612270565b506020830151612508602086018261247a565b50604083015184820360408601526125208282612499565b91505060608301516125356060860182612270565b50608083015161254860808601826124d1565b508091505092915050565b5f6020820190508181035f83015261256b81846124e0565b905092915050565b5f806040838503121561258957612588611cac565b5b5f61259685828601611edd565b92505060206125a785828601611edd565b9150509250929050565b7f4e487b71000000000000000000000000000000000000000000000000000000005f52602260045260245ffd5b5f60028204905060018216806125f557607f821691505b602082108103612608576126076125b1565b5b50919050565b5f6060820190506126215f830186611e9f565b61262e6020830185611f7f565b61263b6040830184611e9f565b949350505050565b5f819050815f5260205f209050919050565b5f6020601f8301049050919050565b5f82821b905092915050565b5f6008830261269f7fffffffffffffffffffffffffffffffffffffffffffffffffffffffffffffffff82612664565b6126a98683612664565b95508019841693508086168417925050509392505050565b5f819050919050565b5f6126e46126df6126da84611e11565b6126c1565b611e11565b9050919050565b5f819050919050565b6126fd836126ca565b612711612709826126eb565b848454612670565b825550505050565b5f90565b612725612719565b6127308184846126f4565b505050565b5b81811015612753576127485f8261271d565b600181019050612736565b5050565b601f8211156127985761276981612643565b61277284612655565b81016020851015612781578190505b61279561278d85612655565b830182612735565b50505b505050565b5f82821c905092915050565b5f6127b85f198460080261279d565b1980831691505092915050565b5f6127d083836127a9565b9150826002028217905092915050565b6127e982611d67565b67ffffffffffffffff81111561280257612801612007565b5b61280c82546125de565b612817828285612757565b5f60209050601f831160018114612848575f8415612836578287015190505b61284085826127c5565b8655506128a7565b601f19841661285686612643565b5f5b8281101561287d57848901518255600182019150602085019450602081019050612858565b8683101561289a5784890151612896601f8916826127a9565b8355505b6001600288020188555050505b505050505050565b7f4e487b71000000000000000000000000000000000000000000000000000000005f52601160045260245ffd5b5f6128e682611e11565b91506128f183611e11565b9250828201905080821115612909576129086128af565b5b92915050565b7f4f6e6c79207468652043454f20697320616c6c6f77656420746f206368616e675f8201527f6520746865206261736555524900000000000000000000000000000000000000602082015250565b5f612969602d83611d71565b91506129748261290f565b604082019050919050565b5f6020820190508181035f8301526129968161295d565b9050919050565b5f81905092915050565b5f6129b182611d67565b6129bb818561299d565b93506129cb818560208601611d81565b80840191505092915050565b5f6129e282856129a7565b91506129ee82846129a7565b91508190509392505050565b5f81519050919050565b5f82825260208201905092915050565b5f612a1e826129fa565b612a288185612a04565b9350612a38818560208601611d81565b612a4181611da9565b840191505092915050565b5f608082019050612a5f5f830187611e9f565b612a6c6020830186611e9f565b612a796040830185611f7f565b8181036060830152612a8b8184612a14565b905095945050505050565b5f81519050612aa481611cdf565b92915050565b5f60208284031215612abf57612abe611cac565b5b5f612acc84828501612a96565b91505092915050565b7f4e487b71000000000000000000000000000000000000000000000000000000005f52601260045260245ffd5b5f604082019050612b155f830185611e9f565b612b226020830184611f7f565b939250505056fea26469706673582212201e0aafc704dfb796f36f1fb7c90dae739fe530a624bb93e71ddd10ca7d46800c64736f6c63430008140033",
  "immutableReferences": {},
  "source": "// SPDX-License-Identifier: MIT\r\npragma solidity ^0.8.13;\r\n\r\nimport \"@openzeppelin/contracts/token/ERC721/ERC721.sol\";\r\n\r\ncontract AchievementNFT is ERC721 {\r\n    // CEO Address set to the deployer.\r\n    address CEO;\r\n\r\n    // Base URI for token URI\r\n    string private baseURI;\r\n\r\n    // Mapping of achievement IDs to their corresponding metadata\r\n    mapping(uint256 => Achievement) public achievements;\r\n\r\n    // Mapping of player addresses to their achievement IDs\r\n    mapping(address => uint256[]) public playerAchievements;\r\n\r\n    // Event triggered when an achievement is minted\r\n    event AchievementMinted(uint256 indexed achievementId, address indexed player);\r\n\r\n    // Event triggered when an achievement is traded\r\n    event AchievementTraded(uint256 indexed achievementId, address indexed from, address indexed to);\r\n\r\n    // Struct to store achievement metadata\r\n    struct Achievement {\r\n        uint256 id;\r\n        address owner;\r\n        string name;\r\n        uint256 rarity; // 0 = common, 1 = uncommon, 2 = rare, etc. Set only at time of mint\r\n        bool isTransferable; // default = false. Set only at time of minting\r\n    }\r\n\r\n    // For achievement IDs\r\n    uint256 public achievementIdCounter;\r\n\r\n    constructor(string memory _name, string memory _symbol, string memory _baseURL) ERC721(_name, _symbol) {\r\n        baseURI = _baseURL;\r\n        CEO = msg.sender;\r\n        achievementIdCounter = 0;\r\n    }\r\n\r\n    // modifier to check that the caller is the CEO\r\n    modifier onlyCEO() {\r\n        require(msg.sender == CEO, \"Only the CEO is allowed to change the baseURI\");\r\n        _;\r\n    }\r\n\r\n    // Modifier to check if the caller is the owner of the achievement\r\n    modifier onlyOwner(uint256 _achievementId) {\r\n        require(achievements[_achievementId].owner == msg.sender, \"Only the owner can perform this action\");\r\n        _;\r\n    }\r\n\r\n    \r\n    function _baseURI() internal view override returns (string memory) { return baseURI;}\r\n\r\n    // Function to update the base url can only be called by the CEO\r\n    function updateBaseURL(string memory _baseURL) external onlyCEO { baseURI = _baseURL;}\r\n\r\n    // Function to mint a new achievement\r\n    function mintAchievement(address _player, string memory _name, uint256 _rarity, bool _transferable) public {\r\n        uint256 newAchievementId = achievementIdCounter;\r\n        achievements[newAchievementId] = Achievement(newAchievementId, msg.sender, _name, _rarity, _transferable);\r\n        playerAchievements[_player].push(newAchievementId);\r\n        _safeMint(msg.sender, newAchievementId);\r\n        emit AchievementMinted(newAchievementId, _player);\r\n        achievementIdCounter += 1;\r\n    }\r\n\r\n    // Function to get an achievement's metadata\r\n    function getAchievementMetadata(uint256 _achievementId) public view returns (Achievement memory) {\r\n        return achievements[_achievementId];\r\n    }\r\n\r\n    // Function to get a player's achievements\r\n    function getPlayerAchievements(address _player) public view returns (uint256[] memory) {\r\n        return playerAchievements[_player];\r\n    }\r\n}",
  "sourcePath": "C:\\Users\\Peter\\code\\projects\\gamifiedWeb3\\src\\contracts\\Achievment.sol",
  "compiler": {
    "name": "solc",
    "version": "0.8.20+commit.a1b79de6.Emscripten.clang"
  },
  "schemaVersion": "3.4.16",
  "updatedAt": "2024-05-31T18:54:06.293Z",
  "devdoc": {
    "errors": {
      "ERC721IncorrectOwner(address,uint256,address)": [
        {
          "details": "Indicates an error related to the ownership over a particular token. Used in transfers.",
          "params": {
            "owner": "Address of the current owner of a token.",
            "sender": "Address whose tokens are being transferred.",
            "tokenId": "Identifier number of a token."
          }
        }
      ],
      "ERC721InsufficientApproval(address,uint256)": [
        {
          "details": "Indicates a failure with the `operator`s approval. Used in transfers.",
          "params": {
            "operator": "Address that may be allowed to operate on tokens without being their owner.",
            "tokenId": "Identifier number of a token."
          }
        }
      ],
      "ERC721InvalidApprover(address)": [
        {
          "details": "Indicates a failure with the `approver` of a token to be approved. Used in approvals.",
          "params": {
            "approver": "Address initiating an approval operation."
          }
        }
      ],
      "ERC721InvalidOperator(address)": [
        {
          "details": "Indicates a failure with the `operator` to be approved. Used in approvals.",
          "params": {
            "operator": "Address that may be allowed to operate on tokens without being their owner."
          }
        }
      ],
      "ERC721InvalidOwner(address)": [
        {
          "details": "Indicates that an address can't be an owner. For example, `address(0)` is a forbidden owner in EIP-20. Used in balance queries.",
          "params": {
            "owner": "Address of the current owner of a token."
          }
        }
      ],
      "ERC721InvalidReceiver(address)": [
        {
          "details": "Indicates a failure with the token `receiver`. Used in transfers.",
          "params": {
            "receiver": "Address to which tokens are being transferred."
          }
        }
      ],
      "ERC721InvalidSender(address)": [
        {
          "details": "Indicates a failure with the token `sender`. Used in transfers.",
          "params": {
            "sender": "Address whose tokens are being transferred."
          }
        }
      ],
      "ERC721NonexistentToken(uint256)": [
        {
          "details": "Indicates a `tokenId` whose `owner` is the zero address.",
          "params": {
            "tokenId": "Identifier number of a token."
          }
        }
      ]
    },
    "events": {
      "Approval(address,address,uint256)": {
        "details": "Emitted when `owner` enables `approved` to manage the `tokenId` token."
      },
      "ApprovalForAll(address,address,bool)": {
        "details": "Emitted when `owner` enables or disables (`approved`) `operator` to manage all of its assets."
      },
      "Transfer(address,address,uint256)": {
        "details": "Emitted when `tokenId` token is transferred from `from` to `to`."
      }
    },
    "kind": "dev",
    "methods": {
      "approve(address,uint256)": {
        "details": "See {IERC721-approve}."
      },
      "balanceOf(address)": {
        "details": "See {IERC721-balanceOf}."
      },
      "getApproved(uint256)": {
        "details": "See {IERC721-getApproved}."
      },
      "isApprovedForAll(address,address)": {
        "details": "See {IERC721-isApprovedForAll}."
      },
      "name()": {
        "details": "See {IERC721Metadata-name}."
      },
      "ownerOf(uint256)": {
        "details": "See {IERC721-ownerOf}."
      },
      "safeTransferFrom(address,address,uint256)": {
        "details": "See {IERC721-safeTransferFrom}."
      },
      "safeTransferFrom(address,address,uint256,bytes)": {
        "details": "See {IERC721-safeTransferFrom}."
      },
      "setApprovalForAll(address,bool)": {
        "details": "See {IERC721-setApprovalForAll}."
      },
      "supportsInterface(bytes4)": {
        "details": "See {IERC165-supportsInterface}."
      },
      "symbol()": {
        "details": "See {IERC721Metadata-symbol}."
      },
      "tokenURI(uint256)": {
        "details": "See {IERC721Metadata-tokenURI}."
      },
      "transferFrom(address,address,uint256)": {
        "details": "See {IERC721-transferFrom}."
      }
    },
    "version": 1
  },
  "userdoc": {
    "kind": "user",
    "methods": {},
    "version": 1
  }
}