{
  "contractName": "PowerUpNFT",
  "abi": [
    {
      "inputs": [
        {
          "internalType": "string",
          "name": "_name",
          "type": "string"
        },
        {
          "internalType": "string",
          "name": "_symbol",
          "type": "string"
        },
        {
          "internalType": "string",
          "name": "_baseURL",
          "type": "string"
        }
      ],
      "stateMutability": "nonpayable",
      "type": "constructor"
    },
    {
      "inputs": [
        {
          "internalType": "address",
          "name": "sender",
          "type": "address"
        },
        {
          "internalType": "uint256",
          "name": "tokenId",
          "type": "uint256"
        },
        {
          "internalType": "address",
          "name": "owner",
          "type": "address"
        }
      ],
      "name": "ERC721IncorrectOwner",
      "type": "error"
    },
    {
      "inputs": [
        {
          "internalType": "address",
          "name": "operator",
          "type": "address"
        },
        {
          "internalType": "uint256",
          "name": "tokenId",
          "type": "uint256"
        }
      ],
      "name": "ERC721InsufficientApproval",
      "type": "error"
    },
    {
      "inputs": [
        {
          "internalType": "address",
          "name": "approver",
          "type": "address"
        }
      ],
      "name": "ERC721InvalidApprover",
      "type": "error"
    },
    {
      "inputs": [
        {
          "internalType": "address",
          "name": "operator",
          "type": "address"
        }
      ],
      "name": "ERC721InvalidOperator",
      "type": "error"
    },
    {
      "inputs": [
        {
          "internalType": "address",
          "name": "owner",
          "type": "address"
        }
      ],
      "name": "ERC721InvalidOwner",
      "type": "error"
    },
    {
      "inputs": [
        {
          "internalType": "address",
          "name": "receiver",
          "type": "address"
        }
      ],
      "name": "ERC721InvalidReceiver",
      "type": "error"
    },
    {
      "inputs": [
        {
          "internalType": "address",
          "name": "sender",
          "type": "address"
        }
      ],
      "name": "ERC721InvalidSender",
      "type": "error"
    },
    {
      "inputs": [
        {
          "internalType": "uint256",
          "name": "tokenId",
          "type": "uint256"
        }
      ],
      "name": "ERC721NonexistentToken",
      "type": "error"
    },
    {
      "anonymous": false,
      "inputs": [
        {
          "indexed": true,
          "internalType": "address",
          "name": "owner",
          "type": "address"
        },
        {
          "indexed": true,
          "internalType": "address",
          "name": "approved",
          "type": "address"
        },
        {
          "indexed": true,
          "internalType": "uint256",
          "name": "tokenId",
          "type": "uint256"
        }
      ],
      "name": "Approval",
      "type": "event"
    },
    {
      "anonymous": false,
      "inputs": [
        {
          "indexed": true,
          "internalType": "address",
          "name": "owner",
          "type": "address"
        },
        {
          "indexed": true,
          "internalType": "address",
          "name": "operator",
          "type": "address"
        },
        {
          "indexed": false,
          "internalType": "bool",
          "name": "approved",
          "type": "bool"
        }
      ],
      "name": "ApprovalForAll",
      "type": "event"
    },
    {
      "anonymous": false,
      "inputs": [
        {
          "indexed": true,
          "internalType": "address",
          "name": "from",
          "type": "address"
        },
        {
          "indexed": true,
          "internalType": "address",
          "name": "to",
          "type": "address"
        },
        {
          "indexed": true,
          "internalType": "uint256",
          "name": "tokenId",
          "type": "uint256"
        }
      ],
      "name": "Transfer",
      "type": "event"
    },
    {
      "anonymous": false,
      "inputs": [
        {
          "indexed": true,
          "internalType": "uint256",
          "name": "powerUpNFTId",
          "type": "uint256"
        },
        {
          "indexed": false,
          "internalType": "uint256",
          "name": "newExpiration",
          "type": "uint256"
        }
      ],
      "name": "powerUpNFTExpirationExtended",
      "type": "event"
    },
    {
      "anonymous": false,
      "inputs": [
        {
          "indexed": true,
          "internalType": "uint256",
          "name": "tokenId",
          "type": "uint256"
        },
        {
          "indexed": true,
          "internalType": "address",
          "name": "player",
          "type": "address"
        },
        {
          "indexed": true,
          "internalType": "uint256",
          "name": "expirationDate",
          "type": "uint256"
        }
      ],
      "name": "powerUpNFTMinted",
      "type": "event"
    },
    {
      "anonymous": false,
      "inputs": [
        {
          "indexed": true,
          "internalType": "uint256",
          "name": "powerUpNFTId",
          "type": "uint256"
        },
        {
          "indexed": true,
          "internalType": "address",
          "name": "from",
          "type": "address"
        },
        {
          "indexed": true,
          "internalType": "address",
          "name": "to",
          "type": "address"
        }
      ],
      "name": "powerUpNFTTraded",
      "type": "event"
    },
    {
      "inputs": [
        {
          "internalType": "address",
          "name": "to",
          "type": "address"
        },
        {
          "internalType": "uint256",
          "name": "tokenId",
          "type": "uint256"
        }
      ],
      "name": "approve",
      "outputs": [],
      "stateMutability": "nonpayable",
      "type": "function"
    },
    {
      "inputs": [
        {
          "internalType": "address",
          "name": "owner",
          "type": "address"
        }
      ],
      "name": "balanceOf",
      "outputs": [
        {
          "internalType": "uint256",
          "name": "",
          "type": "uint256"
        }
      ],
      "stateMutability": "view",
      "type": "function"
    },
    {
      "inputs": [
        {
          "internalType": "uint256",
          "name": "tokenId",
          "type": "uint256"
        }
      ],
      "name": "getApproved",
      "outputs": [
        {
          "internalType": "address",
          "name": "",
          "type": "address"
        }
      ],
      "stateMutability": "view",
      "type": "function"
    },
    {
      "inputs": [
        {
          "internalType": "address",
          "name": "owner",
          "type": "address"
        },
        {
          "internalType": "address",
          "name": "operator",
          "type": "address"
        }
      ],
      "name": "isApprovedForAll",
      "outputs": [
        {
          "internalType": "bool",
          "name": "",
          "type": "bool"
        }
      ],
      "stateMutability": "view",
      "type": "function"
    },
    {
      "inputs": [],
      "name": "name",
      "outputs": [
        {
          "internalType": "string",
          "name": "",
          "type": "string"
        }
      ],
      "stateMutability": "view",
      "type": "function"
    },
    {
      "inputs": [
        {
          "internalType": "uint256",
          "name": "tokenId",
          "type": "uint256"
        }
      ],
      "name": "ownerOf",
      "outputs": [
        {
          "internalType": "address",
          "name": "",
          "type": "address"
        }
      ],
      "stateMutability": "view",
      "type": "function"
    },
    {
      "inputs": [
        {
          "internalType": "address",
          "name": "",
          "type": "address"
        },
        {
          "internalType": "uint256",
          "name": "",
          "type": "uint256"
        }
      ],
      "name": "playerPowerUpNFTs",
      "outputs": [
        {
          "internalType": "uint256",
          "name": "",
          "type": "uint256"
        }
      ],
      "stateMutability": "view",
      "type": "function"
    },
    {
      "inputs": [],
      "name": "powerUpNFTIdCounter",
      "outputs": [
        {
          "internalType": "uint256",
          "name": "",
          "type": "uint256"
        }
      ],
      "stateMutability": "view",
      "type": "function"
    },
    {
      "inputs": [
        {
          "internalType": "uint256",
          "name": "",
          "type": "uint256"
        }
      ],
      "name": "powerUpNFTs",
      "outputs": [
        {
          "internalType": "uint256",
          "name": "id",
          "type": "uint256"
        },
        {
          "internalType": "address",
          "name": "owner",
          "type": "address"
        },
        {
          "internalType": "uint256",
          "name": "expiration",
          "type": "uint256"
        }
      ],
      "stateMutability": "view",
      "type": "function"
    },
    {
      "inputs": [
        {
          "internalType": "address",
          "name": "from",
          "type": "address"
        },
        {
          "internalType": "address",
          "name": "to",
          "type": "address"
        },
        {
          "internalType": "uint256",
          "name": "tokenId",
          "type": "uint256"
        }
      ],
      "name": "safeTransferFrom",
      "outputs": [],
      "stateMutability": "nonpayable",
      "type": "function"
    },
    {
      "inputs": [
        {
          "internalType": "address",
          "name": "from",
          "type": "address"
        },
        {
          "internalType": "address",
          "name": "to",
          "type": "address"
        },
        {
          "internalType": "uint256",
          "name": "tokenId",
          "type": "uint256"
        },
        {
          "internalType": "bytes",
          "name": "data",
          "type": "bytes"
        }
      ],
      "name": "safeTransferFrom",
      "outputs": [],
      "stateMutability": "nonpayable",
      "type": "function"
    },
    {
      "inputs": [
        {
          "internalType": "address",
          "name": "operator",
          "type": "address"
        },
        {
          "internalType": "bool",
          "name": "approved",
          "type": "bool"
        }
      ],
      "name": "setApprovalForAll",
      "outputs": [],
      "stateMutability": "nonpayable",
      "type": "function"
    },
    {
      "inputs": [
        {
          "internalType": "bytes4",
          "name": "interfaceId",
          "type": "bytes4"
        }
      ],
      "name": "supportsInterface",
      "outputs": [
        {
          "internalType": "bool",
          "name": "",
          "type": "bool"
        }
      ],
      "stateMutability": "view",
      "type": "function"
    },
    {
      "inputs": [],
      "name": "symbol",
      "outputs": [
        {
          "internalType": "string",
          "name": "",
          "type": "string"
        }
      ],
      "stateMutability": "view",
      "type": "function"
    },
    {
      "inputs": [
        {
          "internalType": "uint256",
          "name": "tokenId",
          "type": "uint256"
        }
      ],
      "name": "tokenURI",
      "outputs": [
        {
          "internalType": "string",
          "name": "",
          "type": "string"
        }
      ],
      "stateMutability": "view",
      "type": "function"
    },
    {
      "inputs": [
        {
          "internalType": "address",
          "name": "from",
          "type": "address"
        },
        {
          "internalType": "address",
          "name": "to",
          "type": "address"
        },
        {
          "internalType": "uint256",
          "name": "tokenId",
          "type": "uint256"
        }
      ],
      "name": "transferFrom",
      "outputs": [],
      "stateMutability": "nonpayable",
      "type": "function"
    },
    {
      "inputs": [
        {
          "internalType": "string",
          "name": "_baseURL",
          "type": "string"
        }
      ],
      "name": "updateBaseURL",
      "outputs": [],
      "stateMutability": "nonpayable",
      "type": "function"
    },
    {
      "inputs": [
        {
          "internalType": "uint256",
          "name": "_powerUpNFTId",
          "type": "uint256"
        }
      ],
      "name": "getpowerUpNFTMetadata",
      "outputs": [
        {
          "components": [
            {
              "internalType": "uint256",
              "name": "id",
              "type": "uint256"
            },
            {
              "internalType": "address",
              "name": "owner",
              "type": "address"
            },
            {
              "internalType": "uint256",
              "name": "expiration",
              "type": "uint256"
            }
          ],
          "internalType": "struct PowerUpNFT.powerUpNFT",
          "name": "",
          "type": "tuple"
        }
      ],
      "stateMutability": "view",
      "type": "function"
    },
    {
      "inputs": [
        {
          "internalType": "address",
          "name": "_player",
          "type": "address"
        }
      ],
      "name": "getPlayerpowerUpNFTs",
      "outputs": [
        {
          "internalType": "uint256[]",
          "name": "",
          "type": "uint256[]"
        }
      ],
      "stateMutability": "view",
      "type": "function"
    },
    {
      "inputs": [
        {
          "internalType": "uint256",
          "name": "expiration",
          "type": "uint256"
        }
      ],
      "name": "mintNFT",
      "outputs": [],
      "stateMutability": "nonpayable",
      "type": "function"
    },
    {
      "inputs": [
        {
          "internalType": "uint256",
          "name": "tokenId",
          "type": "uint256"
        },
        {
          "internalType": "uint256",
          "name": "newExpiration",
          "type": "uint256"
        }
      ],
      "name": "extendExpiration",
      "outputs": [],
      "stateMutability": "nonpayable",
      "type": "function"
    },
    {
      "inputs": [
        {
          "internalType": "uint256",
          "name": "tokenId",
          "type": "uint256"
        }
      ],
      "name": "isValid",
      "outputs": [
        {
          "internalType": "bool",
          "name": "",
          "type": "bool"
        }
      ],
      "stateMutability": "view",
      "type": "function"
    },
    {
      "inputs": [
        {
          "internalType": "uint256",
          "name": "tokenId",
          "type": "uint256"
        }
      ],
      "name": "getExpiration",
      "outputs": [
        {
          "internalType": "uint256",
          "name": "",
          "type": "uint256"
        }
      ],
      "stateMutability": "view",
      "type": "function"
    }
  ],
  "bytecode": "0x608060405234801562000010575f80fd5b506040516200304138038062003041833981810160405281019062000036919062000244565b8282815f908162000048919062000531565b5080600190816200005a919062000531565b50505080600790816200006e919062000531565b503360065f6101000a81548173ffffffffffffffffffffffffffffffffffffffff021916908373ffffffffffffffffffffffffffffffffffffffff1602179055505f600a8190555050505062000615565b5f604051905090565b5f80fd5b5f80fd5b5f80fd5b5f80fd5b5f601f19601f8301169050919050565b7f4e487b71000000000000000000000000000000000000000000000000000000005f52604160045260245ffd5b6200012082620000d8565b810181811067ffffffffffffffff82111715620001425762000141620000e8565b5b80604052505050565b5f62000156620000bf565b905062000164828262000115565b919050565b5f67ffffffffffffffff821115620001865762000185620000e8565b5b6200019182620000d8565b9050602081019050919050565b5f5b83811015620001bd578082015181840152602081019050620001a0565b5f8484015250505050565b5f620001de620001d88462000169565b6200014b565b905082815260208101848484011115620001fd57620001fc620000d4565b5b6200020a8482856200019e565b509392505050565b5f82601f830112620002295762000228620000d0565b5b81516200023b848260208601620001c8565b91505092915050565b5f805f606084860312156200025e576200025d620000c8565b5b5f84015167ffffffffffffffff8111156200027e576200027d620000cc565b5b6200028c8682870162000212565b935050602084015167ffffffffffffffff811115620002b057620002af620000cc565b5b620002be8682870162000212565b925050604084015167ffffffffffffffff811115620002e257620002e1620000cc565b5b620002f08682870162000212565b9150509250925092565b5f81519050919050565b7f4e487b71000000000000000000000000000000000000000000000000000000005f52602260045260245ffd5b5f60028204905060018216806200034957607f821691505b6020821081036200035f576200035e62000304565b5b50919050565b5f819050815f5260205f209050919050565b5f6020601f8301049050919050565b5f82821b905092915050565b5f60088302620003c37fffffffffffffffffffffffffffffffffffffffffffffffffffffffffffffffff8262000386565b620003cf868362000386565b95508019841693508086168417925050509392505050565b5f819050919050565b5f819050919050565b5f62000419620004136200040d84620003e7565b620003f0565b620003e7565b9050919050565b5f819050919050565b6200043483620003f9565b6200044c620004438262000420565b84845462000392565b825550505050565b5f90565b6200046262000454565b6200046f81848462000429565b505050565b5b8181101562000496576200048a5f8262000458565b60018101905062000475565b5050565b601f821115620004e557620004af8162000365565b620004ba8462000377565b81016020851015620004ca578190505b620004e2620004d98562000377565b83018262000474565b50505b505050565b5f82821c905092915050565b5f620005075f1984600802620004ea565b1980831691505092915050565b5f620005218383620004f6565b9150826002028217905092915050565b6200053c82620002fa565b67ffffffffffffffff811115620005585762000557620000e8565b5b62000564825462000331565b620005718282856200049a565b5f60209050601f831160018114620005a7575f841562000592578287015190505b6200059e858262000514565b8655506200060d565b601f198416620005b78662000365565b5f5b82811015620005e057848901518255600182019150602085019450602081019050620005b9565b86831015620006005784890151620005fc601f891682620004f6565b8355505b6001600288020188555050505b505050505050565b612a1e80620006235f395ff3fe608060405234801561000f575f80fd5b506004361061014b575f3560e01c8063870d6f9d116100c1578063be444b421161007a578063be444b42146103a9578063c155664e146103d9578063c87b56dd1461040b578063e985e9c51461043b578063ea2933461461046b578063f577a5001461049b5761014b565b8063870d6f9d146102eb578063926427441461030757806395d89b4114610323578063a05b775f14610341578063a22cb46514610371578063b88d4fde1461038d5761014b565b806323b872dd1161011357806323b872dd146102075780632641c2621461022357806342842e0e146102535780636352211e1461026f5780636579bd5e1461029f57806370a08231146102bb5761014b565b806301ffc9a71461014f57806306fdde031461017f578063081812fc1461019d578063095ea7b3146101cd5780631783c50f146101e9575b5f80fd5b61016960048036038101906101649190611c56565b6104cb565b6040516101769190611c9b565b60405180910390f35b6101876105ac565b6040516101949190611d3e565b60405180910390f35b6101b760048036038101906101b29190611d91565b61063b565b6040516101c49190611dfb565b60405180910390f35b6101e760048036038101906101e29190611e3e565b610656565b005b6101f161066c565b6040516101fe9190611e8b565b60405180910390f35b610221600480360381019061021c9190611ea4565b610672565b005b61023d60048036038101906102389190611d91565b610771565b60405161024a9190611f52565b60405180910390f35b61026d60048036038101906102689190611ea4565b610804565b005b61028960048036038101906102849190611d91565b610823565b6040516102969190611dfb565b60405180910390f35b6102b960048036038101906102b49190611f6b565b610834565b005b6102d560048036038101906102d09190611fa9565b6108a7565b6040516102e29190611e8b565b60405180910390f35b61030560048036038101906103009190612100565b61095d565b005b610321600480360381019061031c9190611d91565b6109ff565b005b61032b610b0e565b6040516103389190611d3e565b60405180910390f35b61035b60048036038101906103569190611d91565b610b9e565b6040516103689190611e8b565b60405180910390f35b61038b60048036038101906103869190612171565b610bbb565b005b6103a760048036038101906103a2919061224d565b610bd1565b005b6103c360048036038101906103be9190611fa9565b610bee565b6040516103d09190612375565b60405180910390f35b6103f360048036038101906103ee9190611d91565b610c81565b60405161040293929190612395565b60405180910390f35b61042560048036038101906104209190611d91565b610cc6565b6040516104329190611d3e565b60405180910390f35b610455600480360381019061045091906123ca565b610d2c565b6040516104629190611c9b565b60405180910390f35b61048560048036038101906104809190611e3e565b610dba565b6040516104929190611e8b565b60405180910390f35b6104b560048036038101906104b09190611d91565b610de5565b6040516104c29190611c9b565b60405180910390f35b5f7f80ac58cd000000000000000000000000000000000000000000000000000000007bffffffffffffffffffffffffffffffffffffffffffffffffffffffff1916827bffffffffffffffffffffffffffffffffffffffffffffffffffffffff1916148061059557507f5b5e139f000000000000000000000000000000000000000000000000000000007bffffffffffffffffffffffffffffffffffffffffffffffffffffffff1916827bffffffffffffffffffffffffffffffffffffffffffffffffffffffff1916145b806105a557506105a482610e04565b5b9050919050565b60605f80546105ba90612435565b80601f01602080910402602001604051908101604052809291908181526020018280546105e690612435565b80156106315780601f1061060857610100808354040283529160200191610631565b820191905f5260205f20905b81548152906001019060200180831161061457829003601f168201915b5050505050905090565b5f61064582610e6d565b5061064f82610ef3565b9050919050565b6106688282610663610f2c565b610f33565b5050565b600a5481565b5f73ffffffffffffffffffffffffffffffffffffffff168273ffffffffffffffffffffffffffffffffffffffff16036106e2575f6040517f64a0ae920000000000000000000000000000000000000000000000000000000081526004016106d99190611dfb565b60405180910390fd5b5f6106f583836106f0610f2c565b610f45565b90508373ffffffffffffffffffffffffffffffffffffffff168173ffffffffffffffffffffffffffffffffffffffff161461076b578382826040517f64283d7b00000000000000000000000000000000000000000000000000000000815260040161076293929190612465565b60405180910390fd5b50505050565b610779611bbc565b60085f8381526020019081526020015f206040518060600160405290815f8201548152602001600182015f9054906101000a900473ffffffffffffffffffffffffffffffffffffffff1673ffffffffffffffffffffffffffffffffffffffff1673ffffffffffffffffffffffffffffffffffffffff1681526020016002820154815250509050919050565b61081e83838360405180602001604052805f815250610bd1565b505050565b5f61082d82610e6d565b9050919050565b60085f8381526020019081526020015f2060020154421061088a576040517f08c379a0000000000000000000000000000000000000000000000000000000008152600401610881906124e4565b60405180910390fd5b8060085f8481526020019081526020015f20600201819055505050565b5f8073ffffffffffffffffffffffffffffffffffffffff168273ffffffffffffffffffffffffffffffffffffffff1603610918575f6040517f89c62b6400000000000000000000000000000000000000000000000000000000815260040161090f9190611dfb565b60405180910390fd5b60035f8373ffffffffffffffffffffffffffffffffffffffff1673ffffffffffffffffffffffffffffffffffffffff1681526020019081526020015f20549050919050565b60065f9054906101000a900473ffffffffffffffffffffffffffffffffffffffff1673ffffffffffffffffffffffffffffffffffffffff163373ffffffffffffffffffffffffffffffffffffffff16146109ec576040517f08c379a00000000000000000000000000000000000000000000000000000000081526004016109e390612572565b60405180910390fd5b80600790816109fb919061272d565b5050565b6001600a5f828254610a119190612829565b925050819055505f600a549050610a283382611150565b60405180606001604052808281526020013373ffffffffffffffffffffffffffffffffffffffff1681526020018381525060085f8381526020019081526020015f205f820151815f01556020820151816001015f6101000a81548173ffffffffffffffffffffffffffffffffffffffff021916908373ffffffffffffffffffffffffffffffffffffffff16021790555060408201518160020155905050813373ffffffffffffffffffffffffffffffffffffffff16827f4e6c00c12ecb335f24585aa4fa37b8f76f78221da52c44ec12ecad6f2e9fa1bb60405160405180910390a45050565b606060018054610b1d90612435565b80601f0160208091040260200160405190810160405280929190818152602001828054610b4990612435565b8015610b945780601f10610b6b57610100808354040283529160200191610b94565b820191905f5260205f20905b815481529060010190602001808311610b7757829003601f168201915b5050505050905090565b5f60085f8381526020019081526020015f20600201549050919050565b610bcd610bc6610f2c565b838361116d565b5050565b610bdc848484610672565b610be8848484846112d6565b50505050565b606060095f8373ffffffffffffffffffffffffffffffffffffffff1673ffffffffffffffffffffffffffffffffffffffff1681526020019081526020015f20805480602002602001604051908101604052809291908181526020018280548015610c7557602002820191905f5260205f20905b815481526020019060010190808311610c61575b50505050509050919050565b6008602052805f5260405f205f91509050805f015490806001015f9054906101000a900473ffffffffffffffffffffffffffffffffffffffff16908060020154905083565b6060610cd182610e6d565b505f610cdb611488565b90505f815111610cf95760405180602001604052805f815250610d24565b80610d0384611518565b604051602001610d14929190612896565b6040516020818303038152906040525b915050919050565b5f60055f8473ffffffffffffffffffffffffffffffffffffffff1673ffffffffffffffffffffffffffffffffffffffff1681526020019081526020015f205f8373ffffffffffffffffffffffffffffffffffffffff1673ffffffffffffffffffffffffffffffffffffffff1681526020019081526020015f205f9054906101000a900460ff16905092915050565b6009602052815f5260405f208181548110610dd3575f80fd5b905f5260205f20015f91509150505481565b5f60085f8381526020019081526020015f206002015442109050919050565b5f7f01ffc9a7000000000000000000000000000000000000000000000000000000007bffffffffffffffffffffffffffffffffffffffffffffffffffffffff1916827bffffffffffffffffffffffffffffffffffffffffffffffffffffffff1916149050919050565b5f80610e78836115e2565b90505f73ffffffffffffffffffffffffffffffffffffffff168173ffffffffffffffffffffffffffffffffffffffff1603610eea57826040517f7e273289000000000000000000000000000000000000000000000000000000008152600401610ee19190611e8b565b60405180910390fd5b80915050919050565b5f60045f8381526020019081526020015f205f9054906101000a900473ffffffffffffffffffffffffffffffffffffffff169050919050565b5f33905090565b610f40838383600161161b565b505050565b5f80610f50846115e2565b90505f73ffffffffffffffffffffffffffffffffffffffff168373ffffffffffffffffffffffffffffffffffffffff1614610f9157610f908184866117da565b5b5f73ffffffffffffffffffffffffffffffffffffffff168173ffffffffffffffffffffffffffffffffffffffff161461101c57610fd05f855f8061161b565b600160035f8373ffffffffffffffffffffffffffffffffffffffff1673ffffffffffffffffffffffffffffffffffffffff1681526020019081526020015f205f82825403925050819055505b5f73ffffffffffffffffffffffffffffffffffffffff168573ffffffffffffffffffffffffffffffffffffffff161461109b57600160035f8773ffffffffffffffffffffffffffffffffffffffff1673ffffffffffffffffffffffffffffffffffffffff1681526020019081526020015f205f82825401925050819055505b8460025f8681526020019081526020015f205f6101000a81548173ffffffffffffffffffffffffffffffffffffffff021916908373ffffffffffffffffffffffffffffffffffffffff160217905550838573ffffffffffffffffffffffffffffffffffffffff168273ffffffffffffffffffffffffffffffffffffffff167fddf252ad1be2c89b69c2b068fc378daa952ba7f163c4a11628f55a4df523b3ef60405160405180910390a4809150509392505050565b611169828260405180602001604052805f81525061189d565b5050565b5f73ffffffffffffffffffffffffffffffffffffffff168273ffffffffffffffffffffffffffffffffffffffff16036111dd57816040517f5b08ba180000000000000000000000000000000000000000000000000000000081526004016111d49190611dfb565b60405180910390fd5b8060055f8573ffffffffffffffffffffffffffffffffffffffff1673ffffffffffffffffffffffffffffffffffffffff1681526020019081526020015f205f8473ffffffffffffffffffffffffffffffffffffffff1673ffffffffffffffffffffffffffffffffffffffff1681526020019081526020015f205f6101000a81548160ff0219169083151502179055508173ffffffffffffffffffffffffffffffffffffffff168373ffffffffffffffffffffffffffffffffffffffff167f17307eab39ab6107e8899845ad3d59bd9653f200f220920489ca2b5937696c31836040516112c99190611c9b565b60405180910390a3505050565b5f8373ffffffffffffffffffffffffffffffffffffffff163b1115611482578273ffffffffffffffffffffffffffffffffffffffff1663150b7a02611319610f2c565b8685856040518563ffffffff1660e01b815260040161133b949392919061290b565b6020604051808303815f875af192505050801561137657506040513d601f19601f820116820180604052508101906113739190612969565b60015b6113f7573d805f81146113a4576040519150601f19603f3d011682016040523d82523d5f602084013e6113a9565b606091505b505f8151036113ef57836040517f64a0ae920000000000000000000000000000000000000000000000000000000081526004016113e69190611dfb565b60405180910390fd5b805181602001fd5b63150b7a0260e01b7bffffffffffffffffffffffffffffffffffffffffffffffffffffffff1916817bffffffffffffffffffffffffffffffffffffffffffffffffffffffff19161461148057836040517f64a0ae920000000000000000000000000000000000000000000000000000000081526004016114779190611dfb565b60405180910390fd5b505b50505050565b60606007805461149790612435565b80601f01602080910402602001604051908101604052809291908181526020018280546114c390612435565b801561150e5780601f106114e55761010080835404028352916020019161150e565b820191905f5260205f20905b8154815290600101906020018083116114f157829003601f168201915b5050505050905090565b60605f6001611526846118b8565b0190505f8167ffffffffffffffff81111561154457611543611fdc565b5b6040519080825280601f01601f1916602001820160405280156115765781602001600182028036833780820191505090505b5090505f82602001820190505b6001156115d7578080600190039150507f3031323334353637383961626364656600000000000000000000000000000000600a86061a8153600a85816115cc576115cb612994565b5b0494505f8503611583575b819350505050919050565b5f60025f8381526020019081526020015f205f9054906101000a900473ffffffffffffffffffffffffffffffffffffffff169050919050565b808061165357505f73ffffffffffffffffffffffffffffffffffffffff168273ffffffffffffffffffffffffffffffffffffffff1614155b15611785575f61166284610e6d565b90505f73ffffffffffffffffffffffffffffffffffffffff168373ffffffffffffffffffffffffffffffffffffffff16141580156116cc57508273ffffffffffffffffffffffffffffffffffffffff168173ffffffffffffffffffffffffffffffffffffffff1614155b80156116df57506116dd8184610d2c565b155b1561172157826040517fa9fbf51f0000000000000000000000000000000000000000000000000000000081526004016117189190611dfb565b60405180910390fd5b811561178357838573ffffffffffffffffffffffffffffffffffffffff168273ffffffffffffffffffffffffffffffffffffffff167f8c5be1e5ebec7d5bd14f71427d1e84f3dd0314c0f7b2291e5b200ac8c7c3b92560405160405180910390a45b505b8360045f8581526020019081526020015f205f6101000a81548173ffffffffffffffffffffffffffffffffffffffff021916908373ffffffffffffffffffffffffffffffffffffffff16021790555050505050565b6117e5838383611a09565b611898575f73ffffffffffffffffffffffffffffffffffffffff168373ffffffffffffffffffffffffffffffffffffffff160361185957806040517f7e2732890000000000000000000000000000000000000000000000000000000081526004016118509190611e8b565b60405180910390fd5b81816040517f177e802f00000000000000000000000000000000000000000000000000000000815260040161188f9291906129c1565b60405180910390fd5b505050565b6118a78383611ac9565b6118b35f8484846112d6565b505050565b5f805f90507a184f03e93ff9f4daa797ed6e38ed64bf6a1f0100000000000000008310611914577a184f03e93ff9f4daa797ed6e38ed64bf6a1f010000000000000000838161190a57611909612994565b5b0492506040810190505b6d04ee2d6d415b85acef81000000008310611951576d04ee2d6d415b85acef8100000000838161194757611946612994565b5b0492506020810190505b662386f26fc10000831061198057662386f26fc10000838161197657611975612994565b5b0492506010810190505b6305f5e10083106119a9576305f5e100838161199f5761199e612994565b5b0492506008810190505b61271083106119ce5761271083816119c4576119c3612994565b5b0492506004810190505b606483106119f157606483816119e7576119e6612994565b5b0492506002810190505b600a8310611a00576001810190505b80915050919050565b5f8073ffffffffffffffffffffffffffffffffffffffff168373ffffffffffffffffffffffffffffffffffffffff1614158015611ac057508273ffffffffffffffffffffffffffffffffffffffff168473ffffffffffffffffffffffffffffffffffffffff161480611a815750611a808484610d2c565b5b80611abf57508273ffffffffffffffffffffffffffffffffffffffff16611aa783610ef3565b73ffffffffffffffffffffffffffffffffffffffff16145b5b90509392505050565b5f73ffffffffffffffffffffffffffffffffffffffff168273ffffffffffffffffffffffffffffffffffffffff1603611b39575f6040517f64a0ae92000000000000000000000000000000000000000000000000000000008152600401611b309190611dfb565b60405180910390fd5b5f611b4583835f610f45565b90505f73ffffffffffffffffffffffffffffffffffffffff168173ffffffffffffffffffffffffffffffffffffffff1614611bb7575f6040517f73c6ac6e000000000000000000000000000000000000000000000000000000008152600401611bae9190611dfb565b60405180910390fd5b505050565b60405180606001604052805f81526020015f73ffffffffffffffffffffffffffffffffffffffff1681526020015f81525090565b5f604051905090565b5f80fd5b5f80fd5b5f7fffffffff0000000000000000000000000000000000000000000000000000000082169050919050565b611c3581611c01565b8114611c3f575f80fd5b50565b5f81359050611c5081611c2c565b92915050565b5f60208284031215611c6b57611c6a611bf9565b5b5f611c7884828501611c42565b91505092915050565b5f8115159050919050565b611c9581611c81565b82525050565b5f602082019050611cae5f830184611c8c565b92915050565b5f81519050919050565b5f82825260208201905092915050565b5f5b83811015611ceb578082015181840152602081019050611cd0565b5f8484015250505050565b5f601f19601f8301169050919050565b5f611d1082611cb4565b611d1a8185611cbe565b9350611d2a818560208601611cce565b611d3381611cf6565b840191505092915050565b5f6020820190508181035f830152611d568184611d06565b905092915050565b5f819050919050565b611d7081611d5e565b8114611d7a575f80fd5b50565b5f81359050611d8b81611d67565b92915050565b5f60208284031215611da657611da5611bf9565b5b5f611db384828501611d7d565b91505092915050565b5f73ffffffffffffffffffffffffffffffffffffffff82169050919050565b5f611de582611dbc565b9050919050565b611df581611ddb565b82525050565b5f602082019050611e0e5f830184611dec565b92915050565b611e1d81611ddb565b8114611e27575f80fd5b50565b5f81359050611e3881611e14565b92915050565b5f8060408385031215611e5457611e53611bf9565b5b5f611e6185828601611e2a565b9250506020611e7285828601611d7d565b9150509250929050565b611e8581611d5e565b82525050565b5f602082019050611e9e5f830184611e7c565b92915050565b5f805f60608486031215611ebb57611eba611bf9565b5b5f611ec886828701611e2a565b9350506020611ed986828701611e2a565b9250506040611eea86828701611d7d565b9150509250925092565b611efd81611d5e565b82525050565b611f0c81611ddb565b82525050565b606082015f820151611f265f850182611ef4565b506020820151611f396020850182611f03565b506040820151611f4c6040850182611ef4565b50505050565b5f606082019050611f655f830184611f12565b92915050565b5f8060408385031215611f8157611f80611bf9565b5b5f611f8e85828601611d7d565b9250506020611f9f85828601611d7d565b9150509250929050565b5f60208284031215611fbe57611fbd611bf9565b5b5f611fcb84828501611e2a565b91505092915050565b5f80fd5b5f80fd5b7f4e487b71000000000000000000000000000000000000000000000000000000005f52604160045260245ffd5b61201282611cf6565b810181811067ffffffffffffffff8211171561203157612030611fdc565b5b80604052505050565b5f612043611bf0565b905061204f8282612009565b919050565b5f67ffffffffffffffff82111561206e5761206d611fdc565b5b61207782611cf6565b9050602081019050919050565b828183375f83830152505050565b5f6120a461209f84612054565b61203a565b9050828152602081018484840111156120c0576120bf611fd8565b5b6120cb848285612084565b509392505050565b5f82601f8301126120e7576120e6611fd4565b5b81356120f7848260208601612092565b91505092915050565b5f6020828403121561211557612114611bf9565b5b5f82013567ffffffffffffffff81111561213257612131611bfd565b5b61213e848285016120d3565b91505092915050565b61215081611c81565b811461215a575f80fd5b50565b5f8135905061216b81612147565b92915050565b5f806040838503121561218757612186611bf9565b5b5f61219485828601611e2a565b92505060206121a58582860161215d565b9150509250929050565b5f67ffffffffffffffff8211156121c9576121c8611fdc565b5b6121d282611cf6565b9050602081019050919050565b5f6121f16121ec846121af565b61203a565b90508281526020810184848401111561220d5761220c611fd8565b5b612218848285612084565b509392505050565b5f82601f83011261223457612233611fd4565b5b81356122448482602086016121df565b91505092915050565b5f805f806080858703121561226557612264611bf9565b5b5f61227287828801611e2a565b945050602061228387828801611e2a565b935050604061229487828801611d7d565b925050606085013567ffffffffffffffff8111156122b5576122b4611bfd565b5b6122c187828801612220565b91505092959194509250565b5f81519050919050565b5f82825260208201905092915050565b5f819050602082019050919050565b5f6123018383611ef4565b60208301905092915050565b5f602082019050919050565b5f612323826122cd565b61232d81856122d7565b9350612338836122e7565b805f5b8381101561236857815161234f88826122f6565b975061235a8361230d565b92505060018101905061233b565b5085935050505092915050565b5f6020820190508181035f83015261238d8184612319565b905092915050565b5f6060820190506123a85f830186611e7c565b6123b56020830185611dec565b6123c26040830184611e7c565b949350505050565b5f80604083850312156123e0576123df611bf9565b5b5f6123ed85828601611e2a565b92505060206123fe85828601611e2a565b9150509250929050565b7f4e487b71000000000000000000000000000000000000000000000000000000005f52602260045260245ffd5b5f600282049050600182168061244c57607f821691505b60208210810361245f5761245e612408565b5b50919050565b5f6060820190506124785f830186611dec565b6124856020830185611e7c565b6124926040830184611dec565b949350505050565b7f45787069726174696f6e2068617320616c7265616479207061737365640000005f82015250565b5f6124ce601d83611cbe565b91506124d98261249a565b602082019050919050565b5f6020820190508181035f8301526124fb816124c2565b9050919050565b7f4f6e6c79207468652043454f20697320616c6c6f77656420746f206368616e675f8201527f6520746865206261736555524900000000000000000000000000000000000000602082015250565b5f61255c602d83611cbe565b915061256782612502565b604082019050919050565b5f6020820190508181035f83015261258981612550565b9050919050565b5f819050815f5260205f209050919050565b5f6020601f8301049050919050565b5f82821b905092915050565b5f600883026125ec7fffffffffffffffffffffffffffffffffffffffffffffffffffffffffffffffff826125b1565b6125f686836125b1565b95508019841693508086168417925050509392505050565b5f819050919050565b5f61263161262c61262784611d5e565b61260e565b611d5e565b9050919050565b5f819050919050565b61264a83612617565b61265e61265682612638565b8484546125bd565b825550505050565b5f90565b612672612666565b61267d818484612641565b505050565b5b818110156126a0576126955f8261266a565b600181019050612683565b5050565b601f8211156126e5576126b681612590565b6126bf846125a2565b810160208510156126ce578190505b6126e26126da856125a2565b830182612682565b50505b505050565b5f82821c905092915050565b5f6127055f19846008026126ea565b1980831691505092915050565b5f61271d83836126f6565b9150826002028217905092915050565b61273682611cb4565b67ffffffffffffffff81111561274f5761274e611fdc565b5b6127598254612435565b6127648282856126a4565b5f60209050601f831160018114612795575f8415612783578287015190505b61278d8582612712565b8655506127f4565b601f1984166127a386612590565b5f5b828110156127ca578489015182556001820191506020850194506020810190506127a5565b868310156127e757848901516127e3601f8916826126f6565b8355505b6001600288020188555050505b505050505050565b7f4e487b71000000000000000000000000000000000000000000000000000000005f52601160045260245ffd5b5f61283382611d5e565b915061283e83611d5e565b9250828201905080821115612856576128556127fc565b5b92915050565b5f81905092915050565b5f61287082611cb4565b61287a818561285c565b935061288a818560208601611cce565b80840191505092915050565b5f6128a18285612866565b91506128ad8284612866565b91508190509392505050565b5f81519050919050565b5f82825260208201905092915050565b5f6128dd826128b9565b6128e781856128c3565b93506128f7818560208601611cce565b61290081611cf6565b840191505092915050565b5f60808201905061291e5f830187611dec565b61292b6020830186611dec565b6129386040830185611e7c565b818103606083015261294a81846128d3565b905095945050505050565b5f8151905061296381611c2c565b92915050565b5f6020828403121561297e5761297d611bf9565b5b5f61298b84828501612955565b91505092915050565b7f4e487b71000000000000000000000000000000000000000000000000000000005f52601260045260245ffd5b5f6040820190506129d45f830185611dec565b6129e16020830184611e7c565b939250505056fea26469706673582212204751febf6b08d03d426dd8bf36fb02f7dcb202ec94b3a438e50bd801b130aabb64736f6c63430008140033",
  "immutableReferences": {},
  "source": "// SPDX-License-Identifier: MIT\r\npragma solidity ^0.8.13;\r\n\r\nimport \"@openzeppelin/contracts/token/ERC721/ERC721.sol\";\r\n\r\ncontract PowerUpNFT is ERC721 {\r\n\r\n    // CEO Address set to the deployer.\r\n    address CEO;\r\n\r\n    // Base URI for token URI\r\n    string private baseURI;\r\n\r\n    // Mapping of power up NFT IDs to their corresponding metadata\r\n    mapping(uint256 => powerUpNFT) public powerUpNFTs;\r\n\r\n    // Mapping of player addresses to their power up NFT IDs\r\n    mapping(address => uint256[]) public playerPowerUpNFTs;\r\n\r\n    // Event triggered when a power up NFT is minted\r\n    event powerUpNFTMinted(uint256 indexed tokenId, address indexed player, uint256 indexed expirationDate); // uint256 indexed tokenId, uint256 powerUpId, uint256 expiration\r\n\r\n    // Event triggered when a power up NFT is traded\r\n    event powerUpNFTTraded(uint256 indexed powerUpNFTId, address indexed from, address indexed to);\r\n\r\n    // Event triggered when a power up NFT's expiration is extended\r\n    event powerUpNFTExpirationExtended(uint256 indexed powerUpNFTId, uint256 newExpiration);\r\n\r\n    // Struct to store power up NFT metadata\r\n    struct powerUpNFT {\r\n        uint256 id;\r\n        address owner;\r\n        uint256 expiration; // timestamp in seconds\r\n    }\r\n\r\n    // For power up NFT IDs\r\n    uint256 public powerUpNFTIdCounter;\r\n\r\n    constructor(string memory _name, string memory _symbol, string memory _baseURL) ERC721(_name, _symbol) {\r\n        baseURI = _baseURL;\r\n        CEO = msg.sender;\r\n        powerUpNFTIdCounter = 0;\r\n    }\r\n\r\n    // modifier to check that the caller is the CEO\r\n    modifier onlyCEO() {\r\n        require(msg.sender == CEO, \"Only the CEO is allowed to change the baseURI\");\r\n        _;\r\n    }\r\n\r\n    // Modifier to check if the caller is the owner of the power up NFT\r\n    modifier onlyOwner(uint256 _powerUpNFTId) {\r\n        require(powerUpNFTs[_powerUpNFTId].owner == msg.sender, \"Only the owner can perform this action\");\r\n        _;\r\n    }\r\n\r\n    function _baseURI() internal view override returns (string memory) { return baseURI;}\r\n\r\n    // Function to update the base url can only be called by the CEO\r\n    function updateBaseURL(string memory _baseURL) external onlyCEO { baseURI = _baseURL;}\r\n\r\n    // Function to get a power up NFT's metadata\r\n    function getpowerUpNFTMetadata(uint256 _powerUpNFTId) public view returns (powerUpNFT memory) {\r\n        return powerUpNFTs[_powerUpNFTId];\r\n    }\r\n\r\n    // Function to get a player's power up NFTs\r\n    function getPlayerpowerUpNFTs(address _player) public view returns (uint256[] memory) {\r\n        return playerPowerUpNFTs[_player];\r\n    }\r\n\r\n    function mintNFT(uint256 expiration) public {\r\n        powerUpNFTIdCounter += 1;\r\n        uint256 newTokenId = powerUpNFTIdCounter;\r\n        _safeMint(msg.sender, newTokenId);\r\n        powerUpNFTs[newTokenId] = powerUpNFT(newTokenId, msg.sender, expiration);\r\n        emit powerUpNFTMinted(newTokenId, msg.sender, expiration);\r\n    }\r\n\r\n    function extendExpiration(uint256 tokenId, uint256 newExpiration) public {\r\n        require(block.timestamp < powerUpNFTs[tokenId].expiration, \"Expiration has already passed\");\r\n        powerUpNFTs[tokenId].expiration = newExpiration;\r\n    }\r\n\r\n    function isValid(uint256 tokenId) public view returns (bool) {\r\n        return block.timestamp < powerUpNFTs[tokenId].expiration;\r\n    }\r\n\r\n    function getExpiration(uint256 tokenId) public view returns (uint256) {\r\n        return powerUpNFTs[tokenId].expiration;\r\n    }\r\n}",
  "sourcePath": "C:\\Users\\Peter\\code\\projects\\gamifiedWeb3\\src\\contracts\\PowerUp.sol",
  "compiler": {
    "name": "solc",
    "version": "0.8.20+commit.a1b79de6.Emscripten.clang"
  },
  "schemaVersion": "3.4.16",
  "updatedAt": "2024-05-31T18:54:06.310Z",
  "devdoc": {
    "errors": {
      "ERC721IncorrectOwner(address,uint256,address)": [
        {
          "details": "Indicates an error related to the ownership over a particular token. Used in transfers.",
          "params": {
            "owner": "Address of the current owner of a token.",
            "sender": "Address whose tokens are being transferred.",
            "tokenId": "Identifier number of a token."
          }
        }
      ],
      "ERC721InsufficientApproval(address,uint256)": [
        {
          "details": "Indicates a failure with the `operator`s approval. Used in transfers.",
          "params": {
            "operator": "Address that may be allowed to operate on tokens without being their owner.",
            "tokenId": "Identifier number of a token."
          }
        }
      ],
      "ERC721InvalidApprover(address)": [
        {
          "details": "Indicates a failure with the `approver` of a token to be approved. Used in approvals.",
          "params": {
            "approver": "Address initiating an approval operation."
          }
        }
      ],
      "ERC721InvalidOperator(address)": [
        {
          "details": "Indicates a failure with the `operator` to be approved. Used in approvals.",
          "params": {
            "operator": "Address that may be allowed to operate on tokens without being their owner."
          }
        }
      ],
      "ERC721InvalidOwner(address)": [
        {
          "details": "Indicates that an address can't be an owner. For example, `address(0)` is a forbidden owner in EIP-20. Used in balance queries.",
          "params": {
            "owner": "Address of the current owner of a token."
          }
        }
      ],
      "ERC721InvalidReceiver(address)": [
        {
          "details": "Indicates a failure with the token `receiver`. Used in transfers.",
          "params": {
            "receiver": "Address to which tokens are being transferred."
          }
        }
      ],
      "ERC721InvalidSender(address)": [
        {
          "details": "Indicates a failure with the token `sender`. Used in transfers.",
          "params": {
            "sender": "Address whose tokens are being transferred."
          }
        }
      ],
      "ERC721NonexistentToken(uint256)": [
        {
          "details": "Indicates a `tokenId` whose `owner` is the zero address.",
          "params": {
            "tokenId": "Identifier number of a token."
          }
        }
      ]
    },
    "events": {
      "Approval(address,address,uint256)": {
        "details": "Emitted when `owner` enables `approved` to manage the `tokenId` token."
      },
      "ApprovalForAll(address,address,bool)": {
        "details": "Emitted when `owner` enables or disables (`approved`) `operator` to manage all of its assets."
      },
      "Transfer(address,address,uint256)": {
        "details": "Emitted when `tokenId` token is transferred from `from` to `to`."
      }
    },
    "kind": "dev",
    "methods": {
      "approve(address,uint256)": {
        "details": "See {IERC721-approve}."
      },
      "balanceOf(address)": {
        "details": "See {IERC721-balanceOf}."
      },
      "getApproved(uint256)": {
        "details": "See {IERC721-getApproved}."
      },
      "isApprovedForAll(address,address)": {
        "details": "See {IERC721-isApprovedForAll}."
      },
      "name()": {
        "details": "See {IERC721Metadata-name}."
      },
      "ownerOf(uint256)": {
        "details": "See {IERC721-ownerOf}."
      },
      "safeTransferFrom(address,address,uint256)": {
        "details": "See {IERC721-safeTransferFrom}."
      },
      "safeTransferFrom(address,address,uint256,bytes)": {
        "details": "See {IERC721-safeTransferFrom}."
      },
      "setApprovalForAll(address,bool)": {
        "details": "See {IERC721-setApprovalForAll}."
      },
      "supportsInterface(bytes4)": {
        "details": "See {IERC165-supportsInterface}."
      },
      "symbol()": {
        "details": "See {IERC721Metadata-symbol}."
      },
      "tokenURI(uint256)": {
        "details": "See {IERC721Metadata-tokenURI}."
      },
      "transferFrom(address,address,uint256)": {
        "details": "See {IERC721-transferFrom}."
      }
    },
    "version": 1
  },
  "userdoc": {
    "kind": "user",
    "methods": {},
    "version": 1
  }
}